:1060000000800020057D0000437000004370000008
:1060100043700000437000004370000043700000B4
:1060200043700000437000004370000043700000A4
:106030004370000043700000437000004370000094
:106040004370000043700000437000004370000084
:106050004370000043700000437000004370000074
:106060004370000043700000437000004370000064
:106070004370000043700000437000004370000054
:106080004370000043700000437000004370000044
:106090004370000043700000437000004370000034
:1060A0004370000043700000437000004370000024
:1060B0004370000043700000437000009DEA000040
:1060C0004DEA000049EA000099E1000099EA000069
:1060D00051EA000071EA000055EA0000F9EA000008
:1060E000B9CE000001CF0000E1EA000043700000DB
:1060F00043700000437000004370000043700000D4
:1061000043700000437000004370000043700000C3
:1061100043700000437000004370000043700000B3
:1061200043700000437000004370000043700000A3
:106130004370000043700000437000004370000093
:1061400010B5054C237833B9044B13B1044800E073
:1061500000BF0123237010BD0001002000000000DB
:10616000BC33010008B5034B1BB10349034800E0F1
:1061700000BF08BD0000000004010020BC33010086
:10618000154B002B08BF134B9D46A3F5803A002109
:106190008B460F461348144A121A09F072FC0F4B33
:1061A000002B00D098470E4B002B00D098470020C2
:1061B000002104000D000D48002802D00C4800E02A
:1061C00000BF09F02FFC2000290002F069FF09F050
:1061D00015FC00BF00000800008000200000000047
:1061E0000000000000010020442C002000000000FE
:1061F0000000000037B50446684680E80600251D0B
:1062000003C885E805002373069B2361BDF81C3095
:10621000A38200232360084B1A6812B91C6004E0B3
:106220000A4611680029FBD114609888013080B2B9
:10623000988003B030BD00BF1C07002007B503796C
:10624000054A0193036806CA009308300223FFF74A
:10625000D1FF03B05DF804FBFCFC000070B52824FE
:106260002368ADF5047DB3F5C04F05460E4614D244
:106270001B6BB3F5C04F10D25B6A4FF4037201A9D8
:106280000020984730B9236832461B6B2946DB6AE9
:1062900001A898470DF5047D70BD4FF40170F9E732
:1062A00070B528252B68ADF5047DB3F5C04F05D337
:1062B0004FF4017420460DF5047D70BD1B6B002B5F
:1062C000F6D05B6A4FF4037201A900209847044698
:1062D0000028EFD140F201262B68B3F5C04FE7D27A
:1062E0001B6BB3F5C04FE3D29B6A002101A898470E
:1062F000B042F1D040F20323984218BF0446D9E7D8
:1063000030B541F268024FF400340F4B9C5041F617
:1063100071321C6F03F52033C4F3033404FB000017
:10632000DD690A4CDA639A68A04205F4803522F4EC
:10633000401203D9012918BF42F480129A600DB1AE
:106340000022DA6330BD00BF00800040005A6202C4
:10635000094B0022996C30B5DC6C234642EA0104FB
:10636000220C82701A0A210AC2701A0C1B0E0470C9
:1063700041700271437130BD0080E00F202A0B682C
:106380001EBF4FF0FF3191408B43590801F055314A
:106390005B1A03F033319B0803F033330B4401786D
:1063A00003EB13130A444FF0013103F00F334B4357
:1063B000A2EB13630370704773B50026044602AD69
:1063C00005F8016D011D1B222846FFF7D7FF606805
:1063D0009DF80730B3EBD06F03D120F0784002B0C6
:1063E00070BD28461B2204F108018DF80760FFF7F5
:1063F000C5FFA0689DF80730B3EBD06F01D1C04353
:10640000EBE74FF0FF30EAE74BF29A22036810B552
:10641000B2EB134F044611D19BB2012B0ED1FFF703
:10642000CBFF431C0AD04FF6FF72E068030C934287
:106430000AD180B2C01A18BF012010BD23680133F1
:106440000CBF03200420F8E70220F6E737B5054625
:1064500001F10C04436901A9012220469847BDF8C7
:10646000043002A941F8083D0122AB692046984753
:1064700003B030BD2DE9F043054689B09946036964
:1064800008460E4617469847044600286CD1D9F8AE
:1064900004304FEA53285FEA580804F101036BD136
:1064A00099F8032099F802301203DB0203F4006329
:1064B00002F480521A43B9F800306403C3F30A03AC
:1064C000134404F460441C442D4B1B22039327F017
:1064D0007843FF4302A901A802938DF80480FFF7D7
:1064E0004DFF9DF80420029B08A843EAC26300F810
:1064F0001D8D1B2201A927F0784704930197FFF710
:106500003DFF9DF80320019B08A943EAC263059360
:106510004FF0FF339DF84020069382F0010202F510
:106520007F42FE3244EA024441F8044DAB69012245
:1065300006F110009847AB690446012205A906F14F
:1065400008009847AB69002818BF0446012204A937
:10655000301D9847AB69002818BF0446012203A9E3
:106560003046984750B91CB131462846FFF76EFFB8
:10657000204609B0BDE8F0831C468CE70446F3E7EB
:1065800001009AB2036803F07F03012B03D840682F
:1065900020F07C407047072B8CBFD81F002070472D
:1065A00041F268034FF400311E4A70B5D15041F6F4
:1065B00071331D4C0122E669E36341F20C03E250A2
:1065C00002236061054623610021212006F4803604
:1065D00009F096FA18B90146212009F091FA42F221
:1065E0000C030122E2500EB10023E363431C02D0EE
:1065F00018B10E4800E00E4870BD0E4B9B680A3380
:1066000003F01F020123934023F003032B44AB420A
:1066100001D10020F0E755F8042B0132F7D00648ED
:10662000EAE700BF008000400000034024E000F0E3
:1066300021E000F00080E00F0EE000F0002310B534
:106640009A4201D1002010BD50F8234041F8234068
:106650000133F5E77047000041F67132074B012125
:10666000DA6342F20C02995000224FF40031DA63EF
:1066700042F26803024AD150704700BF0000034055
:106680000080004041F268034FF40031054A0020C9
:10669000D15041F67132044B0121DA6342F20C020F
:1066A0009950704700800040000003402DE9F04100
:1066B0008646406800283BD0DEF8007090460024F3
:1066C0003E4657F834500134C5F3130C013501D060
:1066D000614532D0844206F10806F2D138680130B3
:1066E00031D0002507F1080606E057F8352030467E
:1066F000013206F1080627D00135A542F5D1032B5A
:1067000016D0DEF800703868C0F30750032823D095
:10671000002407F1080608E057F83400B446C0F337
:106720000750032806F1080617D00134A542F3D11B
:1067300001238EF80830BDE8F08141EA0351C6E933
:106740000018BDE8F0813846C1F3130141EA035354
:10675000C0E90038BDE8F081BC46C1F3130141EA4D
:106760000353CCE90038BDE8F08100234FF0FF323D
:1067700030B544689C4202D10023037230BD0168E9
:1067800001EBC30541F833206A600133F2E70000F2
:10679000EFF3108272B6034B1A6003680846DB6899
:1067A000184700BFB01D002070B50025044686B014
:1067B0000562E369AB4202D8206A06B070BD666C20
:1067C0002068E36B05225B6901A906FB0500984779
:1067D00001A8FFF719FE012898BF236A05F10105FA
:1067E0009CBF01332362E4E7F7B507460E460D462A
:1067F0007B6C86EA05045B421C40A5EB060001D0D9
:1068000003B0F0BDFB6B01225B6901A928469847E4
:10681000019B013301D10435EAE72046F0E7F0B5EA
:10682000002504462E4687B0E369B34202D82846C5
:1068300007B0F0BD2368676C052207FB0637E36BE2
:1068400001A95B693846984701A8FFF7DDFD0128DB
:1068500009D807F114012046FFF7C6FF636C143B0B
:10686000834208BF01350136DEE7F0B5046806460D
:106870000C1B416C0025B4FBF1F487B0F369306860
:106880005A1E9542776C06D3716C306801FB040088
:10689000143007B0F0BD0134B4FBF3F103FB114435
:1068A000F36B05225B6901A907FB0400984701A867
:1068B000FFF7AAFD0128E7D90135DFE72DE9F04F01
:1068C000144607460E469946C36B89B05B690122A0
:1068D00005A96068DDF848809847FB6B01225B6979
:1068E00004A930469847059B5A1C06D10020A36096
:1068F000A075607509B0BDE8F08F01214FF0000E62
:10690000A175217E049A04EBC101CE61A1F820E0BB
:10691000606802F07F05B042C2F3D31CE9B20CD12B
:106920004FF0FF33C4F800C02175A360237D043B02
:10693000022B20D80020A075DCE7206803F07F033D
:106940006045207D18BF84F816E088421CBF0020F7
:10695000A075012B8CBF0020012001298CBF0021D4
:10696000012188421CBF0021A175012D00F2D280B7
:10697000012BDBD9D1E002F07F02012A0FD8FB6B9B
:1069800002225B6906A93046984706A8FFF7FAFD80
:10699000237D032B69D8DFE803F06363040904A8AF
:1069A000F4E7CC21227E04EBC2021184684AD35C56
:1069B000049D88F8003005F07F02012A88BF002579
:1069C000237E98BFC5F3C16504EBC303012A83F896
:1069D0002250B3F820A000F2A380FB6B02225B6977
:1069E00006A93046984700230DF1200B0BF8113D06
:1069F000202206A95846FFF7C1FC1A2207A9FFF773
:106A0000BDFC9DF80F30079AB3EB926F0CBF0123CA
:106A1000002308226375637D03B9A375A37D9BB131
:106A2000BAF1000F15D07B6CB018594286EA000C01
:106A30001CEA010F1CBF0021A175591E01405B1A01
:106A40009A4584BF0023A37594F816B0BBF1000FDC
:106A500030D095B9E37D002B75D14FF0000B16E0D7
:106A6000227E04EBC2021084A0E7227E062B04EBF8
:106A7000C20210849AD901239AE7012394F819B02D
:106A8000E375BBF1000F24D19D4228D165762AF031
:106A90000300304410441AF0030F7B6C18BF04301D
:106AA0005B4286EA0002134203D031463846FFF7C4
:106AB000DCFEA060A27D12B1236953442361237ED2
:106AC000012B0ED801332376B9F1000F0CD1A07D34
:106AD00010E7012D37D0032D08BFA376BDE79B46F5
:106AE000D5E70023A375F2E7002AF0D0E37D002B61
:106AF000EDD0BBF1000FEAD1032DE8D0A1684B1C0B
:106B0000E5D0CDF80080012322463846FFF7D6FEB7
:106B1000A075DCE7012B3FF609AF0023A37505E75D
:106B200000231B2204A906A88DF81830FFF726FCC5
:106B30009DF81830049AB3EBD26F0CBF01230023E9
:106B40000422637567E7A27D4FF0010BB4E700BF35
:106B50003EFB000013B50C4600210093217613463E
:106B600061682246FFF7AAFE18B1E37D03B1A07E5B
:106B7000A075A07D02B010BDF0B50546002687B017
:106B8000EC69013CB44203D80C46204607B0F0BD86
:106B900001B14C1E6F6C2868EB6B05225B6901A983
:106BA00007FB0400984701A8FFF72EFC0128ECD949
:106BB00001362146E4E7F0B504460D46466CE36B2A
:106BC000006887B05B69052201A906FB05009847AC
:106BD00001A8FFF719FC012804D801A8FFF7ECFB76
:106BE00007B0F0BD29462046FFF7C6FF0646676C92
:106BF0002068E36B05225B6901A907FB0600984743
:106C000001A8FFF7D9FB431CEAD0B54238BF0130D9
:106C1000E6E74369416CDA1D1439B2FBF1F2806991
:106C2000013203EBC202043000EB4200DA1CB2FB7B
:106C3000F1F203EBC2030333B3FBF1F3023301FBC5
:106C400003007047214BD3F8F82102401CD1F0B467
:106C5000D3F8FC5103F5FC74641BA410022CD3F888
:106C6000006212D0032C29D0012C1AD0184C05F147
:106C70000C026468C5E90040C3F8FC21A9603368D0
:106C80000C333360F0BC704770470422104C6468CA
:106C9000686098182C601960C3F8FC013260F0BC81
:106CA00070471A4608240A4F7F682F6042F8080B85
:106CB0005960C3F8FC213460F0BC7047044C646830
:106CC000A960C5E90040C3F8FC31E7E77C25002056
:106CD000001000E0837DDB0701D5808A7047D0E992
:106CE00001239B1A44BF828A9B1898B27047000008
:106CF000044B5A6D22B95865A3F85810012070470B
:106D000000207047BC0600200A20D0B50B4CE38C55
:106D1000584308F0D7FB0646A08C0F4608F0D2FB7C
:106D20000022074B08F038FC02460B463046394635
:106D300008F05CFD08F042FE2083D0BDBC060020B8
:106D40000000F43F40F2E243074A10B5146858438C
:106D500003FB0141536800F5807001EB50011844BA
:106D60001160506010BD00BFBC0600200022134619
:106D700070B58AB0D910415C03F007042141CC07FB
:106D800042BF0AA9891801F8283C03F1010348BF52
:106D90000132252BEED100230D4DD910415C03F0BB
:106DA00007042141C90707D5E91881F82A300133C2
:106DB000252BF2D10AB070BD93FBF2F102FB113129
:106DC0000AAE314411F8286CEC1884F82A60EEE71A
:106DD000BC060020024BD86880B28002704700BF1A
:106DE0000080E00F0C4B10B50C4CE41A0C4B1C440B
:106DF00024F4FF5424F01F04FFF7ECFFA04202D854
:106E00000024204610BD2046FFF7FEFA0128F8D9DD
:106E100004F50054F0E700BF10000020000100203E
:106E2000075401007FB502466D460D4B03F1100675
:106E30002C4618685968083303C4B3422546F7D175
:106E4000531E04A90F3211F8014D13F8010F8442AB
:106E500004D19342F7D1012004B070BD0020FBE7BC
:106E600010FB000070B5154D286810BB144B154C75
:106E7000E41A154B1C4424F4FF5424F01F04FFF7BC
:106E8000A9FF844214D2666BA6B1FFF7A3FF864226
:106E900010D2FFF79FFF06F1400383420AD8304625
:106EA000FFF7C0FF30B1F36933F0080302D02C6064
:106EB000286870BD04F50054E1E700BF7C010020A4
:106EC000100000200001002007540100BFF34F8F85
:106ED0000549064BCA6802F4E0621343CB60BFF376
:106EE0004F8F00BFFDE700BF00ED00E00400FA0592
:106EF00028231B68B3F5C04F05D21B6BB3F5C04FF9
:106F000001D2DB6B184740F20110704728231B6841
:106F1000B3F5C04F05D21B6BB3F5C04F01D29B6BCD
:106F2000184740F20110704728231B68B3F5C04F83
:106F300003D21968064A914203D00023037083608C
:106F40007047012202709A689B694260F7E700BFB0
:106F500007B0CD5E10B50C4630B90448FFF7E4FF2A
:106F6000034B23600423A380002010BDD801002020
:106F7000DC01002010B508B3114B1A6891888142DA
:106F80001CD399880024814281BF01211268998015
:106F90009A6099889A682AB904B19A604FF6FF718D
:106FA000998009E0884204D00131126889B2012435
:106FB000F1E70CB198809A60104610BD0022FBE703
:106FC0002407002037B50D461446FFF7D3FFD8B18C
:106FD0000369828A63B14FF6FE718A4208D10020AC
:106FE00069460090ADF80400984738B103B030BD51
:106FF0002B602280286848B92080F7E7009B2B602F
:10700000BDF804302380F5E70120EFE70020EDE72D
:1070100037B50D461446FFF7ADFF70B1036973B184
:107020004FF6FE72818A914209D10095ADF8044075
:1070300069460120984703B030BD0120FBE70E20D0
:10704000F9E7FEE737B504460379124A03330193A3
:1070500000F14403009306CA02231430FFF7CAF874
:10706000228A237A0192E26804F12C00009294E8CB
:107070000600FFF7BFF80546237AA4F8450084F818
:1070800044302279216804F1470008F0EFFC2846DB
:1070900003B030BDF4FC000070B50E4C0E4B04F193
:1070A000100206460D4692E8030083E803001846E6
:1070B000FFF7C4F80222094B18341A7294E803004F
:1070C000DE6083E803001D821846BDE87040FFF7CC
:1070D000B9BF00BF10FB00001425002004050020EC
:1070E0002DE9F041054616468846FFF7F3FDAB8AC9
:1070F000181A80B2864228BF064637465FB93EB1AD
:10710000D5E901329A4202BFAB7D43F00103AB7572
:107110003046BDE8F081AB8A2C68A8681C44241A6C
:10712000A3B2BB428CBF3C46A4B22246414608F003
:107130009DFCAB682968AA8A23440A44A044934270
:10714000A7EB0404AB60A7B228BFA960D6E770B56F
:10715000044615461E4611B3FFF7BCFDA38A181A54
:1071600080B2012829D9E37D63B1E368628A1A708D
:10717000120A07D02068A18A013301448B4228BF3C
:107180000346F4E700236382A3680222E36004F16C
:1071900012012046FFF7A4FFE37D0133E375324679
:1071A00029462046FFF79CFF638A03446382E37D00
:1071B00013B9238A0344238270BD0020FCE72DE924
:1071C000F041164605468846FFF784FD864228BFF3
:1071D0000646B6B237464FB92EB1AB7DDA0744BF8B
:1071E00023F00103AB753046BDE8F081AB8A2C6813
:1071F00069681C44641AA3B2BB428CBF3C46A4B26B
:107200002246404608F032FC6B682968AA8A23446B
:107210000A44A0449342A7EB04046B60A7B228BFC2
:107220006960D8E770B51E46038A04461546EBB977
:10723000C27DDAB10123013A0B70C27500F1100171
:107240000222FFF7BCFFE37D9BB1228A2946B242AE
:1072500028BF32462046FFF7B2FF238A1B1A23823B
:10726000E37D13B9638A1B1A638270BD00230B7020
:10727000EBE7638A2382E8E770B50D46A8B9FFF70C
:10728000F1FD446BFFF7EEFD58B12346084C03F1C6
:107290004006224618685968083303C2B3421446B0
:1072A000F7D1044B2B600423AB80002070BD00BFDE
:1072B00080010020A001002038B5202204460D46A0
:1072C0000C30002108F0DDFB00234FF0FF32A375E6
:1072D000C4E90025A260E3756376A376237638BD02
:1072E0002DE9F04F0E4600258BB004464FF0FF31DC
:1072F0001046C6F3130917469A468DF81350FFF748
:10730000DBFF4E456BD12B46E1688B420DD0A26866
:1073100002EBC30052F83320551C0DD0C2F3130208
:10732000914509D141684D1C08D1237C002B58D1CF
:1073300047480BB0BDE8F08F0133E6E73846FFF76A
:10734000BBFF0DF11303012239462046FFF702FC73
:107350000028EAD09DF813308AF800300020E8E7D2
:107360002368ED1A636CB5FBF3F542E04046FFF786
:10737000A3FF0DF11303029A41462046FFF7EAFBF3
:107380008646D8B1B11C03D0D8F80030B34215D12D
:107390009DF813302F4A8AF800303B4602F1280B43
:1073A0009446BCE80300DC4518605960624603F16E
:1073B0000803F5D1F346DCF800001860D8F808108F
:1073C00032E0BBF1000FB3D04E45C7D19AF8003080
:1073D0007A68314604F10800FFF768F9BEE7B31C8C
:1073E000A3D1E56A681CBBD1616A2046FFF7C4FBE4
:1073F0000546B31C18BF0123DFF858800293636A67
:10740000626C0393236805A902FB053BE36B05222D
:107410005B695846984705A8FEF7F6FF0BF1140381
:1074200019464FF0000B01934A1C05D0636C019A7A
:107430005B424A40134299D029462046FFF79CFB05
:10744000039BAB42BDD0BBF1000FBDD10546D6E7D3
:107450000BE000F0D01E00202DE9F04F4FF0FF337D
:10746000002589464FF6FF71044600F1080689B0F1
:10747000C0E90913C362056205633046FFF775F979
:107480002046FFF791F900285ED14FF6FF7BD4F834
:1074900024800027D84514BF45460025E3699F4254
:1074A00055D32046FFF780F9002836D1B84D204645
:1074B000FFF7B5F92CE12368E26B606C576903A90B
:1074C000052200FB0530B84703A8FEF79DFF012801
:1074D000074603D0C31EDBB2012B15D82946204630
:1074E000FFF769FB0246012F94F85030676C216862
:1074F000009308BF0132434607FB0511E06BFEF71E
:10750000B9FF2046FFF750F90135E3699D42D2D318
:107510002046FFF749F90028B7D000254FF0FF3883
:107520004FF6FF73C1462F46C4E90853E3699F42F3
:1075300041D3A5EB0805012D60D84FF6FF72636AB1
:10754000934270D1934DB2E704F14008DDE7636CDC
:10755000E26B2068D2F814C003A9052203FB0500E2
:10756000E04703A8FEF750FF022812D0D84518D1F3
:1075700009F1010294F85030606C2168009300FB1F
:10758000051104F14003E06BFEF774FF2046FFF79E
:107590000BF9E3690135B5FBF3F2013703FB125533
:1075A0007CE729462046FFF706FBB0F1FF3F08BF06
:1075B0004846421CDEE7636CE26B2068D2F814C0D8
:1075C00003A9052203FB0700E04703A8FEF71CFF01
:1075D000824603A8FEF7F0FEBAF1010F0CD8484529
:1075E00038BF6762804528BF8046854238BF054660
:1075F0008146236A01332362013797E74FF6FF7311
:1076000000256362E3699D4297D2676C2068E36B53
:1076100005225B6903A907FB0500984703A8FEF74D
:10762000CBFE0135EEE7E26B676C2068556903A974
:10763000052207FB0300A84703A8FEF7BDFE616C07
:107640002268636A544D01FB03231433A3624FF095
:10765000FF332A46E3626FF001010DF10B03204670
:10766000FFF73EFE002857D1AB68E362E56A20468B
:107670002946FFF7B9F8206320B9E16A2046FFF7F1
:10768000F4F8E06229462046FFF7EFF80546A36AC2
:107690009D4243D16369656C2046A5F11402DD1C4F
:1076A000B5FBF2F503EBC5050335B5FBF2F5FFF7C6
:1076B000B6F8AB1C9842814642D2616A2046FFF779
:1076C0005BFA01268046033504F1400A731E994592
:1076D00015D82368676C052207FB0837E36B03A9FD
:1076E0005B693846984703A8FEF766FE94F8503069
:1076F0000246009339465346E06BFEF7BBFE414617
:107700002046FFF739FA0136B5428046DED1234DD7
:10771000284609B0BDE8F08FA36AA6E729462046AF
:10772000FFF762F8236B294603440746236320468C
:10773000FFF79BF80546002FA9D1C4E90B07A6E780
:107740003046FFF712F8164DA16AE36A994201D05C
:107750004B1C01D10025AAE62846FFF7ADFD0DF12F
:107760000B03012229462046FFF7F4F930B1D5E991
:1077700000129DF80B303046FEF798FFA9684A1CAE
:10778000E3D169682046FFF770F80146DDE700BFE6
:1077900003E000F016E000F0A41E002013E000F06B
:1077A000FC1E00202DE9F04F41F268038A464FF499
:1077B00000314FEA820B354A354C85B00190D150EB
:1077C000E369012203F48033029341F67133E363EA
:1077D00041F20C030746D1465E46E2500EB93046F0
:1077E0002FE007F5005525F4FF5525F01F056761CB
:1077F000ED1BE269B54228BF3546520735D4D9F8AA
:10780000001009F10402A161A5F10408B8F1000F0C
:107810000ED1042241462261212008F071F980B97D
:10782000212008F06DF960B92F44A944761BD5E7F3
:1078300008210846039208F063F9039A78B10423FB
:10784000236142F20C020121114B9950029A0AB1B4
:107850000022DA63431C0BD070B10E4809E052F8E5
:10786000041BA8F10408A161D0E74FF0FF30E8E75E
:10787000094805B0BDE8F08F5A465146019808F016
:1078800008F90028054808BF0020F2E70080004002
:107890000000034024E000F021E000F010E000F0E0
:1078A0002DE9F04385B088466946044681E80C001E
:1078B0000C9EBDF83470FFF75DFB4FF6FE79054670
:1078C0000DB1444505D94FF6FF74204605B0BDE81B
:1078D000F0832B7A9DF804209A421ED100996868A3
:1078E00008F0D7F8C8B9002EEFD02B69AA8AA3B147
:1078F0004A4509D10290ADF80C0002A9984760B939
:10790000029BBDF80C2043B1974206D13A46194676
:10791000304608F0BEF80028D7D001342D68A4B254
:10792000CEE70000F0B5354C85B011464FF48670B7
:107930001F461646FFF786F9236925462BB94FF4F3
:107940008370FFF77FF905B0F0BD002F08BF082E48
:1079500021D16A460321206802F0F8FC6368606167
:107960005B7A04F1180123769DF800300220DA1FBB
:1079700053425341627E63F30002029B6276E361ED
:10798000BDF80230638323699847012200212068F3
:1079900002F0E4FCD7E7002F08BFB6F5800F03D153
:1079A000002101209847CEE7002306F440521343FC
:1079B00009D04FF480714FF48170FFF743F92369C8
:1079C00000210320EEE7002306F4A062134308D051
:1079D00001214FF48170FFF735F92B690021FF2059
:1079E000E0E7002306F0A052134319BF012140F243
:1079F000011031464FF48370EDE700BF30230020C3
:107A00007FB502238DF80C30064B5A8B596903322F
:107A10000292186801AA02F09DFC019807B05DF877
:107A200004FB00BF3023002008B500214FF485700F
:107A3000FFF708F90022044B03211A61186801229C
:107A4000BDE8084002F0D8B93023002013B50D4B33
:107A500001281B880C4CADF80430ADF8003002BF93
:107A600002238DF80430042301A9206808BF8DF893
:107A7000003002F0C3FB6946206802F0DFFB02B071
:107A800010BD00BF30FB00003023002037B50022BE
:107A9000114C437A00926060D0E90021206802F026
:107AA000DEFC238CDB050CD563680C4D1A7A297833
:107AB000914206D0012A06D0022A08D063681B7AB8
:107AC0002B7003B030BD206802F08FFCF6E7206811
:107AD00002F09EFCF2E700BF3023002019070020CF
:107AE0007FB51A4C1948637A0133DBB2272B88BF64
:107AF00025236372FFF7CAFF257B627C144C15496E
:107B00004FF400730232206802F000FC6368124AEE
:107B10005B7A05F001052846D65CFFF797FF42F235
:107B2000107300220293012300928DF80C3031462D
:107B300002AB206802F064F928B1FFF775FFFFF788
:107B4000CFFF04B070BD054B2361FAE71C01002094
:107B5000302300202C010020C9FC00001187000008
:107B600038B50D4611462C680144A41A224607F088
:107B70009FFF2C6038BD00002DE9F84F8A4655491B
:107B8000554C0B689346C51A5448554A241A554813
:107B90001560044424F4FF5424F01F04A5428846D1
:107BA000914676D35B445E19FFF71CF908B9FFF7DD
:107BB00011F986426DD8D8F8000000EB0B06B6F537
:107BC000806F03D98222484B1A7060E0474F5A46B3
:107BD0005146384407F04AFF454BC8F800601A6820
:107BE0001AB9332E53D97A6B1A601B68AC199D42AF
:107BF0001DD8A3421BD203F11002A24247D85B1B3F
:107C00001F443B463B4A07F1100153F8040B8B42DB
:107C100042F8040BF9D13748FFF704F910B9324B99
:107C20008422D1E71022FF21384607F02AFF324F85
:107C300006F0030631483B68A41B044053B92840B2
:107C4000C0F500512144FFF753F93C6040B1264B89
:107C50008522B9E7A34203D2E11A03F50050F2E707
:107C6000D8F800202149921BD9F80000FFF74EF9FF
:107C70000446D8F80020D9F80030921B1344154967
:107C80001A48C9F80030FFF76BFF002CDFD1BDE8C0
:107C9000F88F1B4B5B68B3F1827F134B14D25146B4
:107CA000002618780AEB0B028A4203D1002EEED090
:107CB0001870ECE711F8017BFF2FF5D00126A542E3
:107CC00034BF87208320EFE7A54234BF8722832279
:107CD0007AE700BF282300200001002010000020C8
:107CE000640B002007540100610B0020281F0020B6
:107CF000E81D0020D81D00202C23002000E0FFFFFD
:107D0000E401002008B50A4A0A4B0B499A60D3F8EF
:107D1000882042F47002C3F88820084A084B8B423E
:107D200001D3FEF72DFA52F8040F43F8040BF6E7DF
:107D30000060000000ED00E000010020C4330100FD
:107D400010000020EFF3108072B6704741F2640318
:107D50004FF48031064AD150064B5B69C3F385125C
:107D6000827003F03F021B0B42700370704700BF2C
:107D70000080004000C0074037B5044601A8FFF767
:107D8000E5FF9DF80630012123804FF48073002029
:107D9000084A638093680A3303F01F0301FA03F370
:107DA0006360956CD36C40EA0502C4E9022303B01A
:107DB00030BD00BF0080E00FEFF3108072B6704757
:107DC00000B962B67047000010B5034CA01DFEF765
:107DD000CDFF0023236010BDB81D002010B5094C55
:107DE000B4F80710A079FEF7ADFFA368B4F80D1042
:107DF000054AC3F30F239384D184FEF785FF002344
:107E0000236010BDB81D0020BC060020034B044AAF
:107E10009979117500221A60704700BFB81D0020C3
:107E2000BC060020FFF7CCBF08B5C3680020984708
:107E3000024B1868BDE80840FFF7C2BFB01D002024
:107E40002DE9F04F984F89B03B780646894603925A
:107E500003F0FF0B002B37D1FEF7C4FF8246FEF77D
:107E6000B9FFBAF1000F00F01381904BA0F5005557
:107E7000D3F80080C3F800B08D4BA5EB0A0593F84A
:107E800034101C4600297FD01A68924540F00081CA
:107E90005A68954240F0FC809968864A914240F0C9
:107EA000F780DA68062A40F0F38040F26C72596974
:107EB000914240F0ED80D96B7F4A914240F0E880DA
:107EC000C3F818B001233B70794D95F83430002B7E
:107ED00000F0DE8046F48028784E012105F13C0058
:107EE000FEF756FC06AB324641462846FFF7F8F946
:107EF0000446002840F0D3809DF81830032B00F092
:107F0000CE80022B00F0CE803769E86BFFF78CFF44
:107F1000002C40F0BD80039B1B78BB42C0F0B880B2
:107F200095F834300293002B00F0B28001216448B0
:107F3000FEF72EFC0DF11303604A41465C48FFF743
:107F4000CFF9044698B99DF81330012B40F0178102
:107F50003369BB42C0F00D81D6F804B0DFF850A100
:107F60000097009ADAF83C30002A40F0B180504B7C
:107F7000D86BFFF759FF002C40F08A80039B1F70DD
:107F8000029809B0BDE8F08F482203F11000D3F841
:107F900038B007F076FD40F26C736361454B04F135
:107FA0000800A3600623E360C4F838B0C4E900A564
:107FB000FEF7DBFB404B04F14000E363FFF7DCFE20
:107FC00000286AD1626C002A67D06368B3FBF2F3C1
:107FD000E36194F84330002B5AD00023656C84F899
:107FE0005030002D54D0E369002B51D02268B2FBF1
:107FF000F5F305FB1323002B4AD1D4F804A0BAFBF8
:10800000F5F305FB13A3002B42D12948FEF701FE2F
:1080100082453DD340F634726369CC3B934237D8F6
:10802000B5F5007F34D303212548FEF7B1FBD4E931
:108030000001E36B1B6898470546E36B0220DB6891
:108040009847D5B941461A48FFF706FA1D4B054631
:10805000984204D141461648FFF7FEF9054665B936
:10806000636C1348A3F11408236A03FB08F8FEF7B6
:10807000D0FD154B804538BF1D46B5FA85F3E06B42
:108080005B0984F83430FFF7CFFE002D3FF41AAFC0
:108090000023039A0293137072E7002398E70027E6
:1080A0000A4C32E7042730E71C1E0020F8030020AA
:1080B000201E0020EC1D0020ACFC0000781E0020DB
:1080C0005C1E002013E000F002E000F00BE000F086
:1080D0005B69012205A9584698472C49059B096808
:1080E000C3F3D312914246D103F07F03012B30D961
:1080F00005A8FEF747FA4FF004080646009B9E428B
:108100003BD8B208D84432D0EB6B49465B69404655
:10811000984726F0030306F003020192984499441D
:10812000019B6BB1DAF83C3001225B6906A940463D
:1081300098474846019A06A907F098FC019B994484
:10814000009B59469B1B50460093FEF78EFB8346CF
:1081500007E7DAF83C3002225B6906A958469847DF
:1081600006A8FEF70FFA4FF008080646C6E7019684
:10817000D6E7074CFBE6074CF9E6074CF7E6074C59
:10818000074A022B08BF1446F1E600BF781E002004
:1081900011E000F022E000F023E000F00BE000F03E
:1081A0000CE000F02DE9F04106460D4614460C4F58
:1081B0000CB9BDE8F081EFF3108872B623462A4669
:1081C00031463846FEF7C3FF03464046FFF7F8FD49
:1081D000002BEDD0E41AA4B21D440026E8E700BF4E
:1081E000941C0020002313B501F1080421461A460F
:1081F000ADF80430ADF80600083151F8100C70B934
:108200000BB1ADF80420042201200DEB020108346B
:10821000FFF7C8FF54F8101C39B902B010BD51F86F
:108220000C3C1A4492B20123E6E734F80C2C0020EF
:10823000EDE700007FB500230130CDE90433064BA4
:10824000CDE901016946042000930392FFF7CAFFBC
:1082500007B05DF804FB00BFC601002028221368A8
:1082600010B5B3F5C04F0ED2EFF3108072B60024F4
:1082700007490B780C70FFF7A3FD3BB1BDE8104038
:1082800013681B6A18474FF4817010BD1846FCE74D
:10829000B41D002001282DE9F34740F03C818B8874
:1082A000012B40F03A810B681B7813BB9D4A9E4C12
:1082B00013609E4A13609E4A13609E4A13609E4A52
:1082C00013609E4A13709E4A13609E4A1360227880
:1082D000022A01D1FFF7C2FF0123237000249A4B29
:1082E0001C709A4B1C709A4B1C70204602B0BDE863
:1082F000F087032B40F0FC80954BDFF82C921C7824
:10830000002C39D199F80030002B00F0E7808B4B1E
:108310001B78082B40F08280824B1868984668B919
:1083200028252B68B3F5C04F63D34FF4017041F299
:108330000803984200F0D48080241DE010F003066A
:108340000EBF2646C6F10406F6B200EB060ABAF5E1
:10835000806F00F2C9807F4B3246FF211844784F6E
:1083600007F08FFB7C4A3B6812680AEB03019142DD
:10837000C8F800A004D98324002389F80030B4E7AA
:108380006A4A15681D445544DFF8ACA125F4FF5531
:10839000DAF8000025F01F05854209D9291A00F5F1
:1083A0000050FEF7A5FD08B18524E5E7CAF80050A6
:1083B00028231B68B3F5C04F18D21B6BB3F5C04F11
:1083C00014D21D69634AD8F8003039680020A847E4
:1083D00005463B68D8F80020524913449E1B5D486F
:1083E0003E60FFF7BDFB002D9AD0DDE74FF48175AD
:1083F000EFE7FDF755FF002899D12B680190B3F501
:10840000C04F07D21B6BB3F5C04F03D29B6901214C
:1084100001A8984701224D4B1A70ADE7002B61D09F
:10842000494B1B78002B87D0464E336843B9414BEC
:1084300010224A491868FEF769FD00289CD0B3E76E
:1084400013F003021CBFC2F10402D2B29F18B7F5A9
:10845000806F49D84248FF21184407F012FB414A77
:10846000414B37609B1A414A1344314A23F4FF536E
:10847000156823F01F03AB42904637D82F44FEF710
:10848000B1FC08B9FEF7A6FC87423FF674AF33682B
:10849000294F1D4425F4FF55386825F01F058542F6
:1084A00008D9291A00F50050FEF722FD00287FF4B4
:1084B0007BAF3D6032682A49D8F80000FEF726FD00
:1084C0000546D8F8003032681E4913442448C8F8DD
:1084D0000030FFF745FB002DA9D065E781244BE76D
:1084E000862449E7842447E7822445E7872443E735
:1084F000042B14D1132302211D4C637020462170DC
:10850000FEF7F6FB1B4A1C4B128905329A801B4A68
:108510001A6062789A710024E7E60D24E5E60624E5
:10852000E3E600BF5C0B0020620B002074250020F6
:10853000640B0020E81D00202C230020C001002037
:10854000680B002028230020600B0020CD010020B4
:10855000610B00205C07002078250020D81D00203A
:10856000281F0020100000200001002007540100F7
:10857000CC1D0020BC060020B81D00200D8C000082
:1085800028231A6810B5B2F5C04F0ED2EFF3108051
:1085900072B60124074A11781470FFF711FC39B93B
:1085A000BDE810401B68DB6918474FF4817010BDAF
:1085B0000020FCE7B41D00200B4A08B5937E4FF065
:1085C000005443F0400393760022084B1A70084B86
:1085D0001B782BB1FFF7D4FF064B2360FEF776FC28
:1085E0002360FEF773FC00BFBC06002018070020C4
:1085F000CD01002002020FF010B5134CA37E5B06E4
:1086000021D4FFF711FA40F2E24225202168A38C21
:1086100002FB031294F84F102260A27A0A4492FBE4
:10862000F0F100FB11220A21A2722289013222817B
:10863000626801FB03236360238B5A1E228313B9F4
:108640000820FFF7B9FF10BDBC0600202DE9FF414F
:10865000294C40F601002189FEF7F4FAA37E13F0BD
:10866000400242D143F0010303F0FD0362F38203B1
:10867000224AA376136823B121899288914200D1BE
:108680009847A37A1E4F234493F82A301D486375F8
:10869000FFF7FCF9D4E900547B6864085B7A1A4A56
:1086A0002E1B012012F803806435FFF7CFF90096E6
:1086B0000026254401246A4641463346386802951F
:1086C0008DF804608DF80C608DF80D408DF80E600B
:1086D00001F09AFB054622463146386801F03EFE1D
:1086E00035B1FFF789FFFFF7B1FF04B0BDE8F081B6
:1086F000064B3B61F9E700BFBC060020B81D002017
:1087000030230020C8060020C9FC00007588000046
:1087100002282DE9F0411FD002D8012807D0FEE73A
:10872000032800F09C80FF2800F09980F7E74D4C6B
:10873000237B980707D5FFF777F9FFF7D1F9237B5C
:108740006FF341032373237B990701D4DA0764D4C1
:10875000BDE8F041FFF7C4B94B784C68DB077ED524
:10876000227802F00F07032F59D0052F77D13E4909
:1087700004F108008B7B03F00103B3EBD21F4CD153
:108780000622083107F085F98046002845D1FFF719
:108790004BF9FFF735F9354D414606465C22284630
:1087A00007F06FF9AB7E2F8343F02003AB76627E38
:1087B000237E012743EA0223AB84627F237F04F1F7
:1087C0001E0043EA0223EB8494F82330C3F304032E
:1087D00085F84F3094F82330C3F3421385F85030B6
:1087E0001B232B85FEF7C2FAD4F80E30E27CEB6037
:1087F000A37C2E6043EA0223227D2F7543EA0243C5
:108800002B6195F84F30607DAB72E18A3944FEF7F9
:1088100099FAFFF71BFF164B1F70BDE8F081124D50
:1088200004F10800AB7B03F00103B3EBD21FF4D1DA
:10883000062205F1080107F02CF90028EDD1094CBA
:108840004FF4007394F8392004F13801023228689B
:1088500001F05CFD237B43F002032373DDE7FFF7A8
:10886000E3F875E71C01002030230020BC0600203F
:108870001807002002282DE9F7430F460BD003D834
:10888000012800F0B281FEE7032800F0B681FF283E
:1088900000F0B381F7E748784E6810F00104BA4D54
:1088A00061D14FF0FF3140F60300FEF7CBF92646C9
:1088B000AB7EB64C13F0200F12D0696D6FF34513E9
:1088C000AB76002900F09F80237895F8582043F07C
:1088D000030323706270A01C07F0C8F800236B65C7
:1088E000AB48FEF7F7F9003018BF0120AA7E2378C5
:1088F00060F34102C2F30011AA7661F38203C2F36E
:10890000C00262F3C30360F304132370218840F6AE
:108910000200FEF797F96278DFF8988202324FF48E
:1089200000739A49D2B2D8F8000001F0EFFCAB7E98
:108930007C68D90709D56FF30003AB7600236B6021
:10894000FFF75EF82860FEF7DFF94EB1237803F0F9
:108950000303022B00F031816DD8012B00F02C8134
:1089600003B0BDE8F083318840F60300FEF76AF9F2
:108970003378A97EC3F3001396F8008063F3820175
:10898000A976C8F3C003C1F300118B4206D108F0E9
:108990000303022B05D019D8012B31D00026344611
:1089A00015E0A146767896B17A48848AFEF792F966
:1089B000201A80B2B9F1000F04D0022892BF002023
:1089C000023880B286428CBF002401242646AB7E4A
:1089D000C8F38008C3F3C002904507D082F00102BB
:1089E00062F3C303DBB243F02003AB76002C3FF409
:1089F0005FAFAB7E81F0010161F30413AB7657E703
:108A00004FF00009CEE795F82830A21C0DF10701C0
:108A10005F48FEF707FCC0B258B19DF80730002B45
:108A20000CBF012202222378607062F301032370DD
:108A300056E70122F7E7A378022B65D011D8002B67
:108A40004DD0012B38D0544A127822B1162B7FD04A
:108A5000182B00F08C8007225048022102704370CE
:108A600027E00C2B18D0142B56D0082BEBD1B8F8DC
:108A7000201054F8035FC8B205EA0002474801F429
:108A80007F4142EA010504460921002304F8011B45
:108A9000C0F8015063600CE040484FF0FF320370B3
:108AA0000123827043700222037100230621C270E9
:108AB0004371FEF71DF953E7617A237A384A43EA96
:108AC000012393801346374943F8061B54F8031FCC
:108AD000C2F80610A2889A80A2799A7140E7627B58
:108AE000237B2F4943EA02238B800B462E4A43F80F
:108AF000062B54F8032FC1F8062062685A602289B9
:108B00001A81A27A9A722BE72A89254B05329A801C
:108B1000264A1A60E278E0E7B4F80530B4F803209A
:108B2000DB08934228BF13462B8515231B480021E1
:108B30006FF004046FF027020370072381708171C6
:108B40004470C27003714471C27103720921B0E7AD
:108B50002279E3781148134003F00303022B18BF76
:108B6000012317224370027083700321A1E7627909
:108B7000A1790B4B42EA01229A800D4A1A60D4F87F
:108B80000320C3F80620EBE6BC0600208027002067
:108B9000941C00207C1B0020AC1D0020CC1D00205C
:108BA000B81D0020C97D0000DD7D00000D8C000097
:108BB0000D7E00003023002000261248A51C818A6B
:108BC000FEF788F8081A647880B226B1022892BFAE
:108BD0000020023880B2A3B283423FF6C1AE2A46DB
:108BE00031460848FEF7B3FABAE6074B9B7E9A0770
:108BF0003FF5B6AE5B073FF5B3AEFFF7FDFCFFF701
:108C000025FDADE67C1B0020BC06002008B5024B0C
:108C10009879FFF7D1FC00BFB81D00202DE9F04F77
:108C200001288DB040F08D818A88002A00F08B8168
:108C3000B24E96F800A0BAF1000F00F08681B04B5A
:108C40001C781F4664B9AF480578009045B9AE4D11
:108C5000286802EB0008B8F5806F05D982241C70E3
:108C600020460DB0BDE8F08FDFF8B892096848449F
:108C700006F0FCFEBAF1020FC5F800803CD0B8F156
:108C8000030FEDD9DFF8AC824046FEF74DF998F8B6
:108C90000030D9F80020012B9C4B58D19A4258D172
:108CA000D8F80830DB035AD502233370FFF768FC8D
:108CB00028231B68B3F5C04F07D21B6BB3F5C04F19
:108CC00003D29B6805A9002098470598904B069A07
:108CD0001860904BDFF860821A608F4B00EA080240
:108CE0004FF400511A60FEF703F960BBFEF7BAF8C3
:108CF000D0B93378022BB3D18848894E90F800C0A0
:108D000031682B681CF0F70F01EB0302804640F03E
:108D1000D180804803F0030A0068A2EB0A02824275
:108D20001FD983243C709BE74FF40051D0F834A046
:108D3000FEF7DEF838B94FF400510AEA0800FEF7F2
:108D4000D7F80028D5D085233B701C4688E79A4287
:108D500005D084233B703B78002B81D0F4E7862339
:108D6000F8E76B4A126803EB020B8B446A4BABEBE0
:108D70000A0B2BF4FF5B18682BF01F0B8345019344
:108D80000BD9ABEB000100F50050FEF7B1F8019BE9
:108D900008B18524C6E7C3F800B028231B68B3F5E3
:108DA000C04F80F084801A6BB2F5C04F7FD22B6821
:108DB000D2F810B0A3EB0A035A4A31680020D84712
:108DC00083462A683368A2EB0A0213444E49554889
:108DD0003360FEF7C5FEBBF1000FDAD198F8003022
:108DE000002B7FF43DAF33687F2B7FF739AF03A9AA
:108DF00005A8FDF733FA10B9059B88F8003098F8FC
:108E0000003013F0F70F3FF42BAF4FF028082A681B
:108E1000444904A806F02AFED8F800203368B2F5C9
:108E2000C04FB6D2126BB2F5C04FB2D20021D2F809
:108E30000CA008463B4AD04782460028A9D1366894
:108E4000D5F800B009EB06005A4604A906F00EFE5C
:108E5000314B5E442E60C3F800A0334E334B736039
:108E6000D8F80030B3F5C04F93D29B6A4FF48051CD
:108E70002F48984700288CD1D8F800202B68B2F5ED
:108E8000C04F5BD2D2F82C803146264A2848C047D2
:108E900006462A681C492348FEF762FE40F2032377
:108EA0009E421DD040F201239E4225D1D8E64FF4C8
:108EB000817B86E7326028221268B2F5C04F13D258
:108EC000D2F82CA01849174A1948D04782462A6878
:108ED0000D491448FEF744FE40F203239A4506D19B
:108EE0000123009A1370BBE640F2022AEFE740F23A
:108EF00001239A453FF472AF802413E7620B0020F0
:108F0000610B0020600B00205C0B0020EB17A60318
:108F100074250020782500202C230020C00100208B
:108F2000680B00205C0700206C0B0020797B0000A0
:108F30007C0B0020E401002000E0FFFF40F202264D
:108F4000A7E700248CE60D248AE6812488E600BF8A
:108F50000048704700F04902430910B507D0012BC3
:108F60000FD00A4C0A4A022B14BF2346134600F0C6
:108F70001F0041B103F58053012202FA00F018608E
:108F800010BD044BF3E703F50053F5E760820040A2
:108F90006880004064800040FEE70000084B1B6FC3
:108FA00003F00703022B04D0032B06D0012B02D0C1
:108FB000FEE704487047044870470448704700BF04
:108FC00000800040C0EA2101002D310100F049027B
:108FD00038B50446194A1368D806FCD44FF040232C
:108FE000D3F88430C3F381139C4226D0FFF7D6FF19
:108FF000012C054602D12146FDF782F9EFF31080DE
:1090000072B64FF48062631E9A404FF040231A6795
:10901000D3F88420D10603D5D3F88420920609D54D
:10902000FEF7CEFE022C08D12846BDE838400021CC
:10903000FDF766B9D3F88420EAE738BD84400040E4
:1090400008B5FFF7ABFF044B1B6FC3F303330133CA
:10905000B0FBF3F008BD00BF00800040B0F5807F9A
:1090600008D0B0F5C07F03D080280DD1FFF796BFA0
:10907000FFF7E6BF084BD3F8403113F0030303D0EA
:10908000022B03D9032B04D0002070474FF400407B
:1090900070474FF47A707047008000400000000075
:1090A0004FF040232DE98048D3F89430ADB05C06F2
:1090B0001BD44FF00053002224A81A60FDF734FFA0
:1090C000FDF7D0FEC0B1446BFFF75AFA269B580754
:1090D00040F1C183FDF7C6FE28231B68B3F5C04FDE
:1090E000C0F0E383FFF7BAF806E04FF000531A68C8
:1090F000022ADED100221A60B64B1B68C3F3074375
:10910000012B10D1B44B4FF48022596E41F2640010
:1091100049034FF0040458BF42F264011A50AF48AB
:10912000046058BF5A5041F2040041F264054FF008
:10913000004701244AF6CD314FF040224FF0070E90
:10914000A74BA54E77511C50D3F844C01964C2F800
:109150003CE09A6822F0740242F044029A6040F2C5
:1091600009121A6140F203125A6177511C50586C6F
:109170001964DA6A1707FCD442F2240220219950BC
:1091800041F2080201219950954B1A46596A8E0600
:10919000FCD5012804BF93491964BCF1010F04BF39
:1091A000904B13648C4A136F03F00703032B42D0D8
:1091B00041F264034FF40021D15045F60E028A4B70
:1091C0000221C3F8802041F22802995042F228027D
:1091D000012199509A6DD503FCD4844A84491A61BF
:1091E000844A9A611A6A22F00D021A629A6A22F07F
:1091F000330242F001029A627B4A1346906D31EAD3
:109200000000FBD1022141F22800115011659A6D36
:109210005400FCD41A694FF0004122F4700242F469
:1092200000121A6141F21802995042F228020221FA
:1092300099500121995041F264034FF40022664C89
:109240000121E25041F22802674B02209D6A9950A9
:10925000FFF7BEFE00216848FDF752F8236F4FF478
:10926000803243F48063236741F27003E250236F3E
:1092700005F0020523F0070343F003032367FFF71C
:10928000DFFE5E4B196811F01001FBD14FF0402357
:10929000D3F88430C3F38113C3F10203002BC8BF9A
:1092A0000121FDF72DF8FFF779FE0220FFF790FE70
:1092B0004FF4C070FFF7D2FE5149474A884294BF2D
:1092C00000200120136F23F4806343EA8023136797
:1092D0008020FFF7C3FE4B4B98429EBF42F27003C3
:1092E0004FF48031D15025B942F2280301213E4A82
:1092F000D15001213020FFF72FFE1023364A424C77
:1093000093660123C2F880326360324B04251B6CE4
:109310002CAA2366002302F8985D08A9352008933B
:10932000FEF78EFD06238DF81730089B8DF816503A
:1093300013F4803F354F0AAD00F0C082236E8DF8E4
:109340002830236E8DF82930236E8DF82A30236E55
:109350008DF82B30236E8DF82C30236E63F03F0395
:109360008DF82D309DF82E3043F001038DF82E300E
:109370007D6000254FF48071254B264A5961C3E971
:1093800000229A601D82244A244B0DF19008C3E903
:1093900000229A6059612022294640461D8206F02B
:1093A00070FB08238DF8913080238DF893301C4B8F
:1093B0004FF0010925930F238DF89B30194B404640
:1093C00027938DF8989000F08FFC1748174B29468B
:1093D00003602DE00080E00F00800040202001406D
:1093E000004009403254FFFF00C000402008B00B8D
:1093F000030001403C8C8C0300B4C4048440004052
:1094000080F0FA02005A620200C001A8D0010020D8
:10941000941C0020AC1C0020941B00207C1B00200E
:1094200088FB000046FB0000602300202579000037
:10943000BB4BBC4E436000F0C5FCB7A3D3E900238F
:109440003060CDE900234FF0FF334FF0FF3200F0E2
:10945000F9FE02224FF0FF31306800F0FDFEB24B02
:10946000B24C2493414603F500333068269525938A
:1094700000F00EFD21463068257000F01EFF28B177
:109480002146306884F8009000F017FF306800F043
:1094900099FF2178B7F90020306800F035FC0146CB
:1094A000306800F0F5FE7C68DFF828A3002C40F05F
:1094B0001F825046FCF74CFFB37B64F30003B37389
:1094C00010229B4B9B4C83F82123002183F82223FD
:1094D00004F10A0083F8262383F8252383F8232345
:1094E00083F8202383F82423562206F0CAFA9248F0
:1094F000924B4FF49072C4E9000325236372012359
:1095000032848F4A2372137000238E4F8E4D3B603E
:109510001B232B801E232CAA02F89B3D14A9362066
:10952000FEF78EFC20232CAA02F89C3D41463920F0
:10953000FEF786FC90BB854B9DF8152018681B79BB
:10954000249088F80430002A00F0DB811B2A28BF11
:109550001B22531D8DF8143014A9531C0DF19500D6
:109560008DF8933006F082FA1CA8FCF7F1FE784AD9
:109570009DF8143012882CA928F803209A1C51FA5F
:1095800082F200211C9802F8201CBDF874100933E7
:1095900042F81F0C22F81B1C8DF8143020232CAA33
:1095A00002F89D3D1CA93A20FEF74AFC48B9694BD8
:1095B0001A889B78ADF870208DF8723003238DF8EF
:1095C000133000224FF00209634B6448C3E90022C4
:1095D000634B80F804900360FCF730FE6148624BF7
:1095E00080F80490036010230372FDF72BFD5F48A1
:1095F0005F4B80F8049003605E4B80F80890C36076
:10960000A0F81090CDE900394B4690E806001430E0
:10961000FCF7F0FD9DF81510002900F0838114A8D7
:109620004FF01009FDF738FD5348544B80F8049073
:109630000360FCF703FE5248524B4FF6FE7B03607B
:109640000823514AA0F810B0C26080F80490037259
:109650000393FDF7F7FC4D484D4AA0F810B00260A7
:109660000C224FF0020B02724A4A80F80490C2604A
:10967000FDF7E8FC4848494A039B0260484A80F8E5
:109680000490C260038280F808B0FDF7DBFC454817
:10969000454B80F804900360444B80F808B0C360E9
:1096A00001230382FDF7CEFC4148424B80F8049031
:1096B0000360414B80F808B0C3604FF6FE7303822D
:1096C000FDF7C0FC3D483E4B80F8049003603D4BE5
:1096D00080F808B0C3604FF6FE730382FDF7B2FC5A
:1096E000394B1D4A1A604FF6FF729A809DF814207C
:1096F000202A05D8931D63744146344806F0B6F914
:109700009DF81320202A67D8931D84F839301CA9AE
:109710002F4806F0ABF95FE0083540140000000068
:1097200054230020302300203C009400120000202D
:1097300000E100E01C010020D6BE898E5555550081
:10974000AC1D0020F4030020C201002014FC000026
:1097500024FC000027FC00001C070020342500200A
:109760002BFC00005C0500202EFC000030070020D0
:1097700031FC000032FB00005425002034FC0000C6
:10978000B405002045FC0000958200000C06002076
:1097900056FC00001D8C00005404002067FC0000F3
:1097A000CCFB00006406002078FC0000C8FC000030
:1097B000AC04002089FC0000556F0000FC03002071
:1097C0009AFC000079720000240700203401002078
:1097D0005C01002038230020FEF726F9237BB27BB2
:1097E00043F001032373237C02F0010203F0F00332
:1097F00062F386132374637C0BB906236374BAF88F
:109800000410BA4BB068C4F812009980042194F88F
:10981000383061F3030362F3861384F8383094F828
:10982000393013B9062384F83930B068BAF8042007
:10983000AF4BC4F83A009A80FEF752F9AD4CAE4BEC
:109840001B78002B40F0AA80AC4A136923F0040374
:10985000136130BFF3E7002C3FF444ACFDF7BAFAD4
:109860008442BFF43FACFDF7B5FA04F140038342F4
:109870003FF638AC2046FDF7D5FA00283FF432AC6D
:1098800063696BB9FEF7EAFCFDF7ECFA0446FDF7F5
:10989000E9FA9A4B986023689D46636898472BE4E1
:1098A0009DF89030012BEDD114E45B6A9847044693
:1098B000FEF7D4FC002C3FF41FACE5E70DF11702D6
:1098C00029462C20FEF7BCFA00283FF452AD0DF1DA
:1098D000160207A93C20FEF7B3FA9DF82E3020B1FE
:1098E0009DF81C2062F3000340E560F300033DE5B2
:1098F0002068B060A288A379AAF804208AF806300C
:10990000DEE50E238DF814300A238DF893307C4B5E
:109910001A68CDF895205A681B7ACDF899208DF8F1
:109920009D3021E6092176487AE6EFF3108672B67B
:1099300000230DF119011A467248FDF773FC3046F9
:10994000FEF73EFA9DF819300BB100233B603A68F0
:10995000EFF3108672B6C2F501739BB222440DF18B
:1099600019016848FDF75EFC03463046FEF728FA09
:10997000386818440328386010D9B4F8009009F109
:10998000040398420AD307D860884FF000080428DF
:109990000AD0062800F0958100233B605948FDF766
:1099A00099F90028C1D14FE7227909F1FF33082A3C
:1099B000A5F802809BB200F0F8801CD8042A524E11
:1099C00039D0062A52D0022A1CD1022B40F07581D0
:1099D000B4F805800022B8F5007F28BF4FF4007866
:1099E0000323114602203370A6F80180FEF722FC03
:1099F000A5F80080D0E7102A00F00C8104D80A2ACC
:109A000000F088800622ABE0122A00F0B280522AD1
:109A1000F8D1B4F80500FDF7ADFA0028BCD0037BFF
:109A20005B07B9D5A9F1030292B23849B4F8050031
:109A3000FDF7EEFAB0E7042B40F09280B4F8058011
:109A40001FFA88F0FDF796FA60B1027A4168022A9F
:109A50000CBF01230223052073703070A6F802802A
:109A6000032075E0A5F802800A2279E04FF0020396
:109A7000DFF89CB0A9F10702B4F80500B4F80710AC
:109A800092B28DF844300BF102030093CDF840B050
:109A9000019210AB0CCBFDF703FF4FF6FF7A504558
:109AA000814604D16368C3F30F236B80DCE74FF07A
:109AB0000203CDE900888DF83430CDF830B00130A4
:109AC0000CAB0CCB514680B2FDF7EAFE07235045A4
:109AD0001CBF00F1FF3080B23370A6F80190A6F8E9
:109AE000030000220420114632E000BF2E010020B6
:109AF00056010020F00100201807002000ED00E0D2
:109B00001AFC00007C1B0020C6010020F701002089
:109B1000F9010020022B40F0D080B4F80500FDF7D9
:109B200029FA00283DD0037B990714D52B882CAA4D
:109B3000013B22F88C3D10A9B4F80500FDF742FA6C
:109B4000024648B90B21644BBDF8242019701099C6
:109B5000FEF770FB20E702226368C3F30F236B80DC
:109B600001265D4B207969881E70587059801A71E2
:109B7000B7E7B4F80500FDF7FDF990B1037B1A07CC
:109B800011D5A9F1030292B25449B4F80500FDF7CA
:109B90003FFA02460028DFD113214F4B19700146CE
:109BA000D6E70122D8E70322D6E7A9F1050B1FFA71
:109BB0008BFBBBF1020F02D0BBF1100F7FD1484BE2
:109BC000B4F80500B4F8071010930023CDE9003372
:109BD0008DF844B010AB0CCBFDF762FE4FF6FF736F
:109BE000984206463FF45EAF2B882CAA043B22F82D
:109BF000963D09A9FDF7E6F9024608B16E80AFE788
:109C00000921354BBDF81A201970911C59705E80DE
:109C1000099925E7A9F1050B1FFA8BFBBBF1020F90
:109C200002D0BBF1100F4AD14FF00008B4F8050084
:109C3000B4F80710DFF8A8A0CDE900885FFA8BFB25
:109C4000CDF840A08DF844B010AB0CCBFDF728FE4A
:109C50004FF6FF79484506463FF424AFCDE900882A
:109C6000CDF838A08DF83CB001300EAB0CCB494696
:109C700080B2FDF715FE80462B8848452CAAA3F13B
:109C8000060318BF00F1FF3822F8963D09A93046B7
:109C900018BF1FFA88F8FDF795F902460028ADD1E4
:109CA00011210D4BBDF81A201970111D59705E80DD
:109CB000A3F80480099905204AE7042250E70246E8
:109CC0004EE7084B10A910930223CDE91288119397
:109CD000FEF788FA60E600BFC6010020F701002009
:109CE000F90100201000002038B50446054D00F0B1
:109CF000F9FA0FCC0FC594E80F0085E80F0000209B
:109D000038BD00BF8028002047F6FF739A42F0B5A7
:109D100052D0022952D82A4BCE0013F8311098198C
:109D2000012984780DD1C3781B1B23B1416831F917
:109D30001310914202DCE018C0B2F0BD013B1BB22F
:109D4000F3E740680028F8D0B0F90050954204DBF2
:109D5000B0F902509542B8BF15462821A5F1C802B6
:109D600092FBF1F233445B785242591E12B28A429E
:109D7000A8BF0A464FF47A7700EBC206F188B668AE
:109D8000013215FB016112B221EAE17101F5FA71AC
:109D90009A42B1FBF7F104DA00EBC206B6888E42B4
:109DA000EAD200EBC20232F8040C884228BF08460F
:109DB000A04238BF2046BFE7FF20BEE70020BCE737
:109DC0008028002070B50E46044678B1084D2B78E7
:109DD00063B9084B186000F035F83146204600F0B2
:109DE00021F8031C18BF01232B7070BD0020FCE775
:109DF000A4280020A02800200846114600F036B80C
:109E000000B10C3001F0B2BA00B10C3000F028BA49
:109E10007047431E012B03D9031F58425841704716
:109E20000120704738B504460D46002100F02EFA97
:109E30002946204601F01CF900280CBF20460020CE
:109E400038BD000010B5044600F0D6FB44B1054A09
:109E5000D4F88030002B08BF1346034A136010BDAE
:109E6000636FFFDE119E00001800002010B50C4645
:109E700000F0E4FB1CB100F009FC0128FBD110BD8F
:109E800000B10C3000F03ABD00B10C3000F04EBD16
:109E900000B10C3001F052B92DE9F04FDFF87091AC
:109EA00085B004468B4616468DF80F3001F056FB00
:109EB000B9F8005001F074FB00283CD1524F002E3D
:109EC0003ED0386000F0E2FB012865D1DFF844A104
:109ED000A26EDAF80030E06E002B65D0934266D0B7
:109EE0001D68116802680DB18D426FD0204601F0E7
:109EF00031F8012200230546CDE90123D4F87C8006
:109F0000B8F1000F72D000220DF10F031146204668
:109F1000C0474DBBD4E91A23CAF800203B60E6B91C
:109F2000029B002B59D1019B002B56D100252846BE
:109F300005B0BDE8F08F0023334F3B6001F028FBF4
:109F4000E36E3A689342BDD1002BBBD05D45EDD0A6
:109F500000F09CFB0128B9D01EE03146C9F800B0E2
:109F6000204600F0B5FD05460EB9019B83B1B5FA58
:109F700085F03321400900F00DFA9DF80F102046BE
:109F800000F0F4FF214BE16E1B68A4F10C00984730
:109F9000284605B0BDE8F08F012000F04FFB00F02F
:109FA00075FB0128FBD191E7116802689EE73968CB
:109FB000002995D0814293D1B5EB0B024FF00003FD
:109FC00018BF0122019302921D4697E7396811B12B
:109FD0000968914205D0596888E7C9F800B001992D
:109FE000BEE701230025CDE9013587E7217994F803
:109FF000B8309DF80F20994228BF1946204600F03E
:10A0000006FD002DB0D185E7B02800201800002003
:10A01000A8280020AC2800202DE9F04F074683B087
:10A020000E46FDF78FFEFB6E814613B13B89B342AE
:10A0300048D0BB6E002B53D09C68002C50D0D96800
:10A0400000294DD0D7F87CA0BAF1000F50D04FF0C6
:10A050000008A7F10C0B4046454600E09C6805EB64
:10A06000450204EBC204E2890135B24215D8228AC6
:10A07000B24212D3B4F91220B7F92A1101939142D6
:10A0800017DD97F8AC105846FFF73EFE3A79804648
:10A0900082420ED92046019BD9688D42DED338B961
:10A0A00001244846FDF78CFE204603B0BDE8F08F42
:10A0B00004460023224619463846D0473E81FC66B6
:10A0C00087F8B880002331461A463846FFF7E4FE89
:10A0D00004464846FDF774FE204603B0BDE8F08F05
:10A0E00003244846FDF76CFE204603B0BDE8F08F20
:10A0F000D0465046554647F6FF7BA7F10C0A0EE0C6
:10A1000097F8AC105046FFF7FFFD3A79804682423F
:10A11000D4D92046019BD9688D4213D29C6805EBA7
:10A12000450204EBC204E2890135B242F4D8228A26
:10A13000B242F1D3B4F9122001935A45E0D14FF065
:10A14000FF08BBE70028ABD00446B7E7F8B50D1C05
:10A1500018BF01250E46074600241F21284600F09F
:10A1600019F9304601F0D8FE1F21284687F8C8406B
:10A17000C7E91A6400F00EF94FF6FF721820F16873
:10A18000E3B28B420BD3154600230A4A29461360DB
:10A19000094A38461360FFF73FFF2846F8BDB56807
:10A1A00000FB0353DD89954202D2002DECD02A46F4
:10A1B0000134E5E7AC280020B02800200089704772
:10A1C00038B50A78054610460C46FFF722FE88B1DE
:10A1D00049780846FFF71DFE60B10A43520709D4CB
:10A1E00000F054FA430707D421462846BDE838401A
:10A1F00000F0CABB012038BD0220FCE700B10C30E2
:10A20000FFF7DEBF38B5054608780C46FFF701FEBC
:10A2100080B14A781046FFF7FCFD58B1042A09D0F6
:10A2200000F034FA830707D421462846BDE83840B9
:10A2300000F0B8BB012038BD0220FCE700B10C30B3
:10A24000FFF7E0BF30B4DDE9024500B10C30CDE9E5
:10A25000024530BC00F080B900B10C3000F0C0BA4B
:10A2600070B504460D46164600F010FA01280BD1D1
:10A2700029462046FFF7D0FE38B932462946204607
:10A28000BDE8704000F04EBA022070BD01F090B9F8
:10A2900038B5044600200D4601F03CFE4CB1D4F820
:10A2A000883043B9294604F10C00BDE8384000F07D
:10A2B000CDBBE36FFFDE022038BD38B504464888C9
:10A2C0000D4601F027FE4CB1D4F8883043B9294639
:10A2D00004F10C00BDE8384000F074BBE36FFFDE12
:10A2E000022038BD01F017BE38B505460C46FDF713
:10A2F00029FDA9696B690C4023436B61FDF760FD83
:10A3000000200CB9002138BD8021FCE700B10C30E1
:10A3100000F06DBD00B10C3000F086BD4FF400734D
:10A3200007B502AA22F8023D0749FFF7F3FFBDF87F
:10A330000630B3F5007F05D1022808BF002003B026
:10A340005DF804FB0120FAE7B42800200846114616
:10A3500000F078BC00B10C3000F034BD38B51546C3
:10A3600058B100F10C0411B1204600F077FD35B171
:10A370002046BDE8384000F0C3BD0446F3E738BDD1
:10A38000024B1960024B1860FEE700BF1C00002062
:10A390002000002008B528B9034B1960034B18684A
:10A3A000FFF7EEFF08BD00BF1C000020A028002022
:10A3B00010B5044601F04EF92046BDE810400321D7
:10A3C00000F026B900B10C30FFF7F2BF10B54378AA
:10A3D000044643B100F05AF9012804D12046BDE8F3
:10A3E000104001F021B9022010BD00B10C30FFF780
:10A3F000EDBF10B54378044643B100F047F901289A
:10A4000004D12046BDE8104001F0FAB8022010BD8A
:10A4100000B10C30FFF7EDBF70B51E46437805461E
:10A420001446D3B191FAA1F1080A00F0C9FAE30782
:10A4300003D5284601F038F968B1AA20214601F079
:10A4400041F99DF81020442082F00102314601F0CC
:10A45000BBF9002070BD5520F0E70220FAE710B4E8
:10A460009DF804400C3001945DF8044BFFF7D4BF15
:10A4700070470000C2690F4B02F06002402A12D000
:10A48000602A04D0202A12D10122DA6107E071B1DA
:10A490000A68012A0BD94A6942F00102DA61802276
:10A4A000054B1A61704740F20112DA61F7E70022AA
:10A4B000DA61F4E7484F00B0000002A8F7B506469D
:10A4C0000C46174D39B90A46072104F027FBC5E9A8
:10A4D000004403B0F0BD0727124B02A81F600B79A0
:10A4E0002B704B79012140F8043D04F033FB019BB4
:10A4F000C2B2D34000F00F0040EA03106870A379A5
:10A50000094AAB70E3793946EB70236830466B60DB
:10A510002379013313623A4604F000FBD9E700BF08
:10A52000404F00B00C6000A8004000A800F01803E5
:10A53000182B084B02D100221A627047010702D57E
:10A5400001221A627047C206F5D540F201121A6262
:10A55000704700BF484F00B02DE9F34BDDE90A67B3
:10A56000D0E938890446002588EA060089EA07010F
:10A5700001EA030C00EA020B8CEA09018BEA0800ED
:10A58000C4E9380122F0010006EA000807EA0309DD
:10A590001946CDE9005549F0800348F0004203F028
:10A5A00097F92378DB0720D5D4E93823002003F07E
:10A5B000800150EA010318D04FF480312046FFF7A4
:10A5C00093FE237865F300032370D4E9382302EA6D
:10A5D000000503EA010655EA060306D005492A46A6
:10A5E00009683346A4F10C008847002002B0BDE89A
:10A5F000F08B00BF24000020034A0368002B08BF33
:10A600001346024A1360704771A400002400002022
:10A6100031F00F0003BF054A01F00F01D36801209C
:10A6200002BF23F00F030B43D3607047484F00B0C5
:10A63000014B002019617047484F00B0F8B503285E
:10A6400023D8DFE800F01E02161A00240126254652
:10A65000FDF778FB07462946304603F099FC304663
:10A660002246294603F0F8FC3846BDE8F840FDF7DD
:10A67000A7BB012500242E46EAE7012425462646ED
:10A68000E6E7002425462646E2E7F8BD0F4BDB68E7
:10A69000C3F30363013B0B2B0DD8DFE803F0141465
:10A6A0000614141414080A0808080320704704202C
:10A6B000704705207047064B5B6913F0060F14BF07
:10A6C0000420012070470220704700BF000002A84C
:10A6D00000C001A8034B1B6C13F0A00F0CBF01209E
:10A6E00000207047000002A838B50546FFF7CEFFEE
:10A6F000012813D1C1F159047F2C0EDCA970FDF79C
:10A7000021FB074AE402136A04F4FF2423F4FF2325
:10A710001C431462FDF754FB002038BD0220FCE707
:10A7200000C000A8114603F0EDBA00000138C0B225
:10A7300002284FF060518EBF00220D4B53F82020AD
:10A740000C4B00201960A3F580531A604FF40012DF
:10A750004FF080511A60084A936F23F0060343F0CC
:10A7600004039367054B19600423C2F88C307047CB
:10A7700004FD0000206001A8004000A84C1002A8C1
:10A78000114B1B7813B10622104B1A600022104B9C
:10A79000C3F88C204FF0805203F5F0334C331A602D
:10A7A0000C4B1B6C13F4800F0B4B08D1C26912F0D9
:10A7B000800F4FF4001216BF08491A600A604FF06C
:10A7C000605200201A607047B82A0020786000A804
:10A7D000004000A8000002A8206001A8205001A8A5
:10A7E00070B51546C269064682EA05030B40534020
:10A7F000C36108070C4606D5082315F0080F14BFDF
:10A80000334A344A1360E10706D5012315F0010FDE
:10A8100014BF2F4A2F4A136062070CD503F0A0FB28
:10A820004FF4007315F0040F14BF2B4A2B4A13602A
:10A8300004222B4B1A60A30706D5022315F0020F42
:10A8400014BF234A234A1360E00606D515F0100F03
:10A8500014BF00221B22234B5A6521061ED52A064F
:10A8600025D54FF40012204B1A60012203F58753BF
:10A870001A60FDF767FA1D4BDB68C3F30363032B14
:10A8800006D11B4AD36823F0F00343F0E003D36002
:10A8900040F20122134BDA62FDF792FA14F0600FD6
:10A8A00003D0316F3046FFF7E5FD002070BD0F4B40
:10A8B0001B6C5B02F2D44FF4001196F888300D4AFD
:10A8C0001160002BEAD001220B4B1A60E6E700BFB3
:10A8D0004C5000A84C6000A8245001A8246001A896
:10A8E000402002A8004000A8205001A8000002A8B3
:10A8F000484F00B0206001A8005101A8014B186A20
:10A9000002F040BA004001A8036F53B11A68022A4E
:10A9100007D9586AC0F3072030B11B6AB3FBF0F0C7
:10A9200070470C38FFF7ACBA70470000014B186A4B
:10A9300002F050BA004001A8026F62B11368022B06
:10A9400009D9536AC3F3072040B1126ADBB25343FB
:10A95000B3FBF0F070470C38FFF796BA7047000071
:10A96000064BD3F838311B0401D4FFF7E5BF0A7852
:10A97000034B0448012A18BF18467047004001A83D
:10A9800020A1070048E8010010B5054A4B780C7873
:10A9900010881B0643EA044303431360002010BDE4
:10A9A000F44E00B0054803681A0C0B7812041343E8
:10A9B0004A7843EA0223036000207047F44E00B057
:10A9C00002F066BA70B5044600F1AC060868C4F837
:10A9D000AC008B880846A4F8B0308B88C4F83C31B2
:10A9E000FF23637101F0C0FA054670B9304601F0EB
:10A9F000A1FA054648B9204601F034FB0121A4F82C
:10AA0000B00004F1800002F029FD284670BD38B581
:10AA1000054690F8AC000C46032813D0FF2913D04C
:10AA200001F012FBA04204D895F8AC0001F00CFB39
:10AA300004466C71204601F00BFCA0F1FF03584264
:10AA4000584138BD0220FCE70120FAE738B590F8FC
:10AA5000AC300446032B37D0C56E01718DB3C36F84
:10AA60001BB990F8B8308B4205D3B4F92A21B5F957
:10AA700012309A4211DD002294F8B8102046FFF7F8
:10AA8000C6FF0546D8B9E0662046FFF797FB0146AA
:10AA90002046BDE83840FFF7BFBA00222046FFF746
:10AAA000B6FF054658B9094B1B78012B07D820463D
:10AAB00001F0D8FA012104F1800002F0CFFC284611
:10AAC00038BDFF234371FAE70225F8E7360000207E
:10AAD0002DE93048436A86B0012B70D004464F49B7
:10AAE00001F038FF01230022E56E84F8B430A98913
:10AAF000238920675B1A9BB2D5E9011505FB031179
:10AB0000474DC4F8BC102D68A4F8C430A842C4F85E
:10AB1000C02017D058B103684BB103693BB19968A5
:10AB2000D3E90023C4F88C10C4E9202304E00023F7
:10AB3000C4E92033C4F88C3001462046FFF79AFC64
:10AB4000D4E92F1201AB204602F0E4F9002831D1FC
:10AB5000344A3549D368C3F30363013B0B2BF9D95E
:10AB60004B6913F0060FF5D12E4A3049136CDD0105
:10AB7000FCD40B6CD807F9D401A904F1BC0002F095
:10AB800073FB0546B0B9B4F8C420294B29491A64AF
:10AB90002378E26E60F3000323700B68526911683A
:10ABA0005A1C11D0481C1ED08B1C04D0204600F02B
:10ABB00061FE00E00225284606B0BDE83088002589
:10ABC000284606B0BDE830884A1CEDD1D4E93823C8
:10ABD000002003F0800150EA010309D1237843F0FB
:10ABE00001032370E7E71946204600F043FEEDE736
:10ABF0004FF480312046FFF777FBD4E9382302EA8F
:10AC0000000B03EA010C5BEA0C03D4D00A495A4654
:10AC10006346A4F10C0009688847CCE7FC4F00B0FC
:10AC2000C42A0020000002A800C001A800C002A899
:10AC3000008001A844000020240000204FF480710F
:10AC400003F07EBF37B50DF106020D4601F0A4F802
:10AC5000044688B185B12B7813F0F70F0CD0FDF7BF
:10AC600071F8074BBDF806201C60064B1A806A88F5
:10AC7000054B1A80FDF7A4F8204603B030BD00BF95
:10AC8000BC2A0020C02A0020BA2A00202DE9F74360
:10AC900006461546084619B9012003B0BDE8F08301
:10ACA000002AF9D0032905D80022114601F074F8D2
:10ACB0000028F1D0038882781C0402F007017BD4BD
:10ACC000A1F1070C077990F80580C488DCF1000039
:10ACD00040EB0C000529287394BF0020C2F300103C
:10ACE0006873C2F380102874C2F3C000C2F340122C
:10ACF0006874AA745FBB96F8A620013AEA74F269F8
:10AD0000D20653D40639012950D82C4A063B526D3D
:10AD10009BB2062269462A4800F0ADFEE3049DF985
:10AD2000007017D49DF801004400E0B2B36F0BB17E
:10AD300039469847E873AF736A7CDDF802103046F5
:10AD400002F0A6FC012328602B720020A5E7013F3A
:10AD5000EF74D4E7336FC4F30B04E40093B11A68C3
:10AD6000022A0FD95B6A13F0FF0301D0B4FBF3F49E
:10AD7000A04517D8C4B1C8EB0828B8FBF4F4E443E5
:10AD8000E0B2D3E73046FFF7BFFD05F11101814680
:10AD90003046FFF7E5FD0028EAD009FB04F4B4FBD8
:10ADA000F0F4E5E70020C1E72046BFE7002080235C
:10ADB0002860EB81287270E702206EE7004000A84F
:10ADC0004C0000AAF8B506461446177AFFF75EFF56
:10ADD000054650B9237A43B104F111012772304678
:10ADE000FFF7BEFD214602F01FFC2846F8BD0846CD
:10ADF000114610F0030210B514D1B3FA83F3192BE6
:10AE000005D0C3F11902D2B2062A28BF06220124B6
:10AE1000931D9C40A4B2A14228BF214600F0C0FD72
:10AE2000204610BD0124FBE7084611F0030110B5D0
:10AE300012D11388B3FA83F3192B05D0C3F119018A
:10AE4000C9B2062928BF062101238C1DA340138007
:10AE500000F0C4FD002010BD0120FCE701214FF0EF
:10AE60002A43084AD3F8183191624FF4005102F591
:10AE7000005224325B07116042BF0422024B1A6069
:10AE8000704700BF0C0000AA181100AA38B54B7813
:10AE900005460C46DBB9FFF773FCA378DBB940F637
:10AEA000FF72144B5A62E378CBB940F6FF72124B33
:10AEB0005A62602203F17E4303F5A0431A604022E8
:10AEC00003F5E73303F5FA731A60002038BD18461E
:10AED000FFF72CFCE1E72846FFF7C0FFE3E760221D
:10AEE000064B1A60402203F5D73303F5FA731A6054
:10AEF000EBE700BF0C0000AA4C0000AA4C6000A8C1
:10AF000038B54FF02A434FF480640020D3F818512D
:10AF100003F5045318331C60064B186003F06EF8F9
:10AF20004FF40052044B1A606A0544BFA3F65873ED
:10AF30001C6038BDBC2A0020702000AA082310B174
:10AF4000024A13607047024A13607047401002A81B
:10AF5000402002A810B514460846012101F09AFECF
:10AF60002046012101F096FE002010BD4FF48062C2
:10AF70004FF6FF7CF8B52B4B2B4E056F1A60D6F8B9
:10AF800004312A4AC3F381231370D6F80831868925
:10AF9000C3F38123664504460F46537004D0244B07
:10AFA0001B680BB131469847224E3368AB4232D012
:10AFB000214B1B682BB185B3296801B1A9682046D4
:10AFC0009847236F13B11A68022A18D8A4F10C000D
:10AFD000FEF75AFF02F098F90725204601F042F8E3
:10AFE00027B9294604F1800002F038FA0620012230
:10AFF000246F1249124B346008601A70F8BD5A6A07
:10B00000C2F307200028E5D01B6AD2B202FB03F28C
:10B01000B2FBF0F0DEE70125DFE72946204698473E
:10B02000CFE700BF4C2002A8004000A8C82A00209B
:10B03000CC2A0020C42A0020B42A0020786000A86E
:10B04000B82A00204FF480130021064A06481360F6
:10B05000064AC2F8CC1002F502523432136048227C
:10B0600004F00FBDB86000A8F84E00B0004000A882
:10B070002DE9F34188460446002857D003234FF0BA
:10B08000641280F8B8304FF6FF73C0E92822C0F888
:10B09000A820284A4FF0FF378374A0F83231038389
:10B0A00013804FF04023C0F848710782D3F88430F2
:10B0B00000F10C0603F0C003802B35D1304602F0BE
:10B0C000DFFD3046FFF7BEFF60221B4B04F5AA717F
:10B0D000DA643046FFF7DAFEA26A054639463046A2
:10B0E000FFF77EFB0E234FF00042CDE900338023B3
:10B0F0001046194602F0ECFB00F080FF85B92046AF
:10B10000FFF70CF9054658B994F90E103046FFF7D1
:10B11000EBFA0546B8F1000F02D008B92046C04747
:10B12000284602B0BDE8F0810225F9E784F8AC00BA
:10B13000FFDE00BFD42A0020004000A870B50C46F6
:10B14000054600F180060988943002F06BF96188A9
:10B15000208005F19C0002F065F9A188608005F16E
:10B160009A0002F05FF9E188A08005F1980002F0F2
:10B1700059F92189E080304602F060F96189208127
:10B18000304602F063F907216081304602F066F92B
:10B19000002070BD4FF6FF72B0F82631934211D0F7
:10B1A000094A0A49526E100CC2F301120132B3FB74
:10B1B000F2F30880064A074907481B040860136039
:10B1C0000020704703207047004001A8D42A0020C7
:10B1D000645001A8646001A80000FFFFF7B50546B0
:10B1E0000E461446FFF776FA002800F0A1804FF4CF
:10B1F0000061284603F0A4FC38B14FF4007201212D
:10B200004C4B08461A60FEF731FE31462846FEF7E1
:10B2100003FF0646002874D12B789A0601D4002C2F
:10B2200048D0454B9B6A1B0715D44FF44062434BF3
:10B230001A6014F0020204D1414B42491B789B0270
:10B240000B604FF44061404B196022B93C4B3F4AC0
:10B250005B789B02136002F083FE4FF4806314F06E
:10B26000040F14BF3A4A3B4A324F13600422402372
:10B2700014F0400F3A6014BF374A384A2046136032
:10B28000FFF754F92846FFF7D9FC38B14FF4807323
:10B2900014F0010F16BF324A3B601360A70602D5B7
:10B2A0002846FFF777FF003418BF01242B7864F39A
:10B2B00045132B70284600F083F9F8B12846FFF7B4
:10B2C000BDFCD8B14FF40031284603F039FC00280A
:10B2D0000CBF01230223032201A9224800F0CBFB6B
:10B2E0009DF80410204A01F00703052B9DF8053056
:10B2F00012D1080708D443F480735360002000F093
:10B3000009FE304603B0F0BD59070BD49DF8063056
:10B3100043F480735360F1E703F03001202904D136
:10B32000DB07F3D54FF48073F4E79DF80630F1E7BF
:10B330000226E6E7402002A89C4E00B0046100A867
:10B34000C82A0020045100A8086100A8085100A8DC
:10B35000245001A8246001A888D000A888E000A893
:10B36000401002A80C0000AAD44E00B073B50646E7
:10B370001D46FFF733FF044688B995E803006A4687
:10B3800082E803009DF80430B6F89A10012B0346BA
:10B3900007D1884205D20094104602F09BFD02B00E
:10B3A00070BD5B1A0093F7E74FF6FF71084A10B5BE
:10B3B00013888B4209D00748074C1B040460A0F592
:10B3C000805003600020118010BD0320FCE700BF07
:10B3D000D42A0020646001A80000FFFF504B2DE933
:10B3E000F3471C6881468A46154604B10C34802117
:10B3F0004C4801EA0A0300EA0902134352D0002331
:10B4000009F00042134309D0474B1B6803F07F4308
:10B41000B3F1007F02BF0222444B1A60002309F0FF
:10B42000010213432FD04FF0000800220023002117
:10B430000120CDE9008802F04BFA012001F0ECFC7C
:10B44000414660810120FEF711FD394B1B6C5A0209
:10B4500008D4E36913F0800F4FF4001314BF354A8A
:10B46000354A1360354B1A683AB16FF0FF00344922
:10B4700002400860A1F580510A6000221A6023781A
:10B4800043F00403237000220AF08003134309D021
:10B4900001212046FEF728FF2AF0800749EA00092B
:10B4A00047EA010AD4E9382309EA02000AEA03015B
:10B4B00002460B46134306460F4616D0214BA4F115
:10B4C0000C0019683B468847002306F00802134326
:10B4D0001EBF00221C4B1A6008231C4A1F40164046
:10B4E00056EA070301D0FFF75FFFEB070AD51849BB
:10B4F000184A08680021136811600121164A11706A
:10B5000003B1984715F00E0F06D03B21002002B082
:10B51000BDE8F047FEF73EBF02B0BDE8F08700BFD0
:10B52000A028002001000080F44E00B0081002A8FE
:10B53000000002A8205001A8206001A8D02A002005
:10B5400024E000A824000020BC2A00200000C0BF86
:10B55000DC2A0020D82A0020D62A002008B50A4B71
:10B56000D3F84C315A1C0ED05B000CD40320FFF7EB
:10B5700065F84FF08062054B1A60012243F8382CC1
:10B58000022243F8242C08BD0080E00F4C1002A8D2
:10B590004FF40022014B1A60704700BF402002A800
:10B5A000024B186CC0F3C040704700BF000002A8F7
:10B5B000014B024A1A607047B42A0020BDA4000063
:10B5C000802103F0BDBA000008B54378033BDBB22D
:10B5D000032B96BF084A0021D15CFFF729F8012010
:10B5E00000F0D8FE4FF4F062044B1A604FF4007282
:10B5F000A3F580531A6008BD10FD00004C6000A840
:10B60000012310B580F888302823A0F89230042355
:10B61000044643700349FEF799FD2046FFF7D4FF27
:10B62000002010BD28320100012310B580F88830B9
:10B630002823A0F89230022304464370044B196873
:10B64000FEF784FD2046FFF7BFFF002010BD00BFBE
:10B650002800002038B504460F4D286801F0ECFAA8
:10B66000AB68186801F0E8FA0C4B9B68186801F0A9
:10B67000E3FA0B4B9B68186801F0DEFA094B9B68F4
:10B68000186801F0D9FA2046FFF7CEFF2046BDE842
:10B690003840FFF799BF00BF342D01002832010068
:10B6A000242A0100AC2B01004078053801288CBF0A
:10B6B00000200120704700000022014B1A707047E3
:10B6C000E02A0020374B70B51A781AB1364A926ECC
:10B6D0008A4265D001221A70344A01F0030383F0D4
:10B6E000010313449C780D461E2305F00706965D62
:10B6F000013B34444FEA5505F7D14FF000722C4B13
:10B7000055281A6047F6FE72A3F52E43A3F11003E5
:10B710001A60284B03FB04F36FF481744FEA9343E0
:10B7200023444FF00F0402EA4303234A13601E4BE5
:10B730009966C2F8344E0CBF01240224A2F5E672C9
:10B74000146091FAA1F190FAA0F04FF0FF32D3F813
:10B7500038311B045EBF4B08000F43EAC070174B23
:10B7600048BF17481A604FF0F042A3F5805348BF16
:10B770000521186003F5805303F10C031A604FF0A4
:10B7800080025CBF490001F00201A3F58053C906A5
:10B7900019600C4B1A614FF0007203F501531A60E7
:10B7A00070BD00BFE02A0020004001A844FD000059
:10B7B000401002A836FC1000305201A8046101A814
:10B7C000B7563512000002A810B50724194B1C60AB
:10B7D000194B1A4CAAB141F04001586399630123F7
:10B7E0002360174BD3F8383113F4004F4FF48043E4
:10B7F00000D152B913490B6052B14FF48043124942
:10B8000007E05A639A632260EBE710490B60F4E7A4
:10B810000F490B604B608B60094BD3F8383113F440
:10B82000004F4FF4806303D012B10A4A136010BD79
:10B83000094AFBE73C6000A8004000A83C5000A873
:10B84000004001A8045100A8086100A8046100A8F4
:10B85000085100A84C1002A84C2002A8044BC3F8C1
:10B86000881219B142F20102C3F82822704700BFC2
:10B87000004001A838B50C46054600F037F82146CF
:10B88000FFF7ECFF45B1EB6E33B15B6923B1621C8E
:10B8900008BF6FF001041C60002038BD034BD3F8D3
:10B8A000483201B10B601946FFF7E4BF0080E00F9A
:10B8B00007B50A4B1A7808236AB9094A13600023AE
:10B8C0000193084B186800B10C3001A9FFF7E6FF9F
:10B8D00003B05DF804FB044AF0E700BF2C00002031
:10B8E000FC1302A8A0280020FC2302A8014B187812
:10B8F000704700BF2C0000204FF480330A4A1360C9
:10B90000A2F6FC721360094B9A68D1B2C2F3072207
:10B9100099659A6504229A6500229A659A659A65E6
:10B920009A659A65704700BF142100AA4C0000AACE
:10B930002DE9F74F06681C469DF8303006F00706E3
:10B940000193B31D01269E40771E8A46436804EA90
:10B950000701A6EB010843F0005B4245054691460E
:10B96000594418D94246504604F080F8A9EB080221
:10B9700059460AEB080004F079F8019B43B14C44A6
:10B980003E433440EC60AB68A3421CBF0223AB6271
:10B9900003B0BDE8F08F504604F068F8EDE7000012
:10B9A00038B50C4C0D4622606060FCF7CBF94FF0C7
:10B9B0002A430022D3F81431E2605B075CBF042203
:10B9C000054BA56058BF1A60FCF7FAF90DB10223C8
:10B9D000A36238BD0C0000AA142100AA40F6FF7231
:10B9E000034B1860034B196058605A62704700BFE0
:10B9F000E42A00204C0000AA032A2FD9436810B47F
:10BA0000846823445B4203F00303D21A53B10C78D9
:10BA1000012B846105D04C78022B84611CBF8C788B
:10BA200084611944032A0CD9131F23F00303043340
:10BA30000B4451F8044B99424463FAD102F00302DB
:10BA40004AB10B78012A836105D04B78022A8361C1
:10BA50001CBF8B7883615DF8044B704752B10B7843
:10BA6000012A836106D04B78022A836102D08B7849
:10BA700083617047704737B5002514460095FFF77E
:10BA800057FF204603B030BD402938B514464FF06B
:10BA900001030BD8074D0A46AB6201462846FFF763
:10BAA000ABFF2CB104230020AB6238BD1846FCE785
:10BAB0002046FAE7CC0000AA10B5FCF743F90122B2
:10BAC000194B1A499A629A661A6459640721596691
:10BAD000174B184C198000231749A4F6FC740B80EF
